:02000000BA281C
:10000800FF00030E8301A2000A08A3008A018B1CCB
:1000180010288B101030860623088A00220E8300D1
:06002800FF0E7F0E09002F
:10002E0083120313F8010830FC00700DF80D7408EC
:10003E00F80203182428F8070310F00DFC0B1C28F7
:02004E000800A8
:0E0050008312031321088A0020088200080092
:10005E0083120313A901AA01AB01AC010A30F4000B
:10006E002808F00017207008AB00AC010A30F4002D
:10007E002808F00017207808F0007008A900AA01DF
:10008E0006158611290887001A30FC00F830FD008D
:10009E00FD0B4F28FC0B4F280000061186152B0870
:1000AE0087001A30FC00F830FD00FD0B5C28FC0BBD
:0600BE005C2800000800B0
:1000C40028208A110A128000840AA00A0319A10AAE
:0800D400F003031D622808007F
:1000DC0083120313A601A701113088000330A60078
:1000EC0080302606F0008030003A7002031C8D2808
:1000FC00A7012708323C031C8B282608A8002F20B8
:10010C00061A8928B928A70A7F28A6037628213041
:10011C00880086189528061A9428B9288F280A3042
:10012C0088000330A60080302606F0008030003AAC
:10013C007002031CB028A7012708323C031CAE2810
:10014C002608A8002F20061AAC28B928A70AA2282E
:10015C00A60399280C3088008618B828061AB728E8
:08016C00B928B228722808002E
:1001740003308316031386008312061186110612B8
:1001840083168701831287018316880183128801ED
:100194008B170B16831601178312A401A5011130C6
:1001A40088001730A50080302506F0008030003A22
:1001B4007002031CF2282508143A031DE328213099
:1001C4008800A4012408323C031CF0282508A80058
:1001D4002F20061EEE286E20A40AE428A503D528A5
:1001E4000A3088000F30A50080302506F0008030EA
:1001F400003A7002031C132925080C3A031D042934
:100204000C308800A4012408323C031C1129250861
:10021400A8002F20061E0F296E20A40A0529A50375
:06022400F628CE28142983
:02400E004A2F37
:00000001FF
